:100000000C94AF000C94CC000C94CC000C94CC005D
:100010000C94CC000C94CC000C94CC000C94CC0030
:100020000C94CC000C94CC000C94CC000C94CC0020
:100030000C94CC000C94CC000C94CC000C94CC0010
:100040000C94CC000C94CC000C94CC000C94CC0000
:100050000C94CC000501E500E900ED00F100F5008D
:10006000F900FD0000407A10F35A00A0724E180902
:100070000010A5D4E80000E87648170000E40B540F
:10008000020000CA9A3B000000E1F50500008096DE
:100090009800000040420F000000A0860100000010
:1000A000102700000000E8030000000064000000CA
:1000B00000000A00000000000100000000002C7693
:1000C000D888DC674F0823DFC1DFAE59E1B1B796AE
:1000D000E5E3E453C63AE651997696E8E6C284260B
:1000E000EB898C9B62ED407C6FFCEFBC9C9F40F2E7
:1000F000BAA56FA5F490055A2AF75C936B6CF96763
:100100006DC11BFCE0E40D47FEF520E6B500D0ED27
:10011000902E0300943577050080841E080000208F
:100120004E0A000000C80C333333330F986E12832D
:100130001141EF8D2114893BE65516CFFEE6DB1801
:10014000D1844B381BF77C1D901DA4BBE4242032C6
:1001500084725E228100C9F124ECA1E53D271124BF
:100160001FBECFE5D8E0DEBFCDBF10E0A0E6B0E017
:10017000EEE3F9E102C005900D92AC39B107D9F771
:1001800020E0ACE9B0E001C01D92AC3AB207E1F763
:100190000E94CA040C949D0C0C94000086B18068E7
:1001A00086B986B1876086B987B1806487B90895BA
:1001B00097B1907C97B9482F50E04830510508F529
:1001C000FA01E65DFF4F0C942C0687B1816087B978
:1001D000089587B1826087B9089587B1836087B930
:1001E000089587B1846087B9089587B1856087B91C
:1001F000089587B1866087B9089587B1876087B908
:10020000089597B18F71892B87B908950E94D800FE
:1002100086B1806486B986B184B195B18FE39FE1E0
:100220000197F1F700C0000086B1806486B986B1FD
:1002300084B195B108950E940601BC01990F880B05
:10024000990B0E940A0520E030E040E85AE30E9442
:10025000BF0520E030E048EC52E40E94BF0508955D
:10026000811104C087B38F7087BB089587B3806FF7
:1002700087BB88B38F7088BB089598B39E7F98BB67
:1002800028B330E1839FC0011124822B88BB88B33F
:10029000846088BB85E08A95F1F7000088B38B7F86
:1002A00088BB88B38F7088BB089598B3282F207FB0
:1002B000922B98BB98B3946098BB35E03A95F1F7D0
:1002C000000098B39B7F98BB98B39F7098BB28B3EE
:1002D00030E1839FC0011124822B88BB88B38460E6
:1002E00088BB85E08A95F1F7000088B38B7F88BBD7
:1002F00088B38F7088BB089580E00E94300188B376
:100300008E7F88BB88B3826088BB88B3846088BBDB
:1003100085E38A95F1F7000086B388B38B7F88BBAD
:1003200081E00E94300188B38D7F88BB8FE891E027
:100330000197F1F700C000000895CF93C82F0E94E5
:100340007C0188B38E7F88BB8C2F0E945501CF9192
:1003500008958FEF87BB18BA2FEF83EF91E02150FC
:1003600080409040E1F700C0000083E00E943D0122
:100370008FE59AEE0197F1F700C0000083E00E943C
:100380003D018FE99FE00197F1F700C0000083E095
:100390000E943D018FE99FE00197F1F700C0000046
:1003A00082E00E943D0195ED9A95F1F7000088E208
:1003B0000E949D018CE00E949D0186E00E949D01AB
:1003C00081E00E949D018FE39CE90197F1F700C055
:1003D00000000895CF93C82F0E947C0188B38160EC
:1003E00088BB8C2F0E945501CF910895E82FF0E033
:1003F000ED58FF4F8081860F80680E949D0108950F
:10040000EF92FF920F931F93CF93DF937C01FC0138
:1004100001900020E9F731978F01081B190BC0E00C
:10042000D0E007C0F701EC0FFD1F80810E94EA01B8
:100430002196C017D107B1F7DF91CF911F910F918E
:10044000FF90EF9008950E94EA010895BF92CF9225
:10045000DF92EF92FF920F931F93CF93DF93C62EFD
:10046000D72EE82EF92EB42E9F938F937F936F9300
:1004700080E790E09F938F931F921F921F921F928D
:100480000E94730701960E945206EC018DB79EB739
:100490000A960FB6F8949EBF0FBE8DBF209779F0D5
:1004A0008E012B2D44E06C2D7D2D8E2D9F2D0E94D5
:1004B0003206CE010E940002CE010E94EA06DF91C0
:1004C000CF911F910F91FF90EF90DF90CF90BF9051
:1004D000089511B888E480B9089584EA86BF06B605
:1004E00007FEFDCF81B1089584E986BF0895880F86
:1004F000682B606463B984E886BF06B607FEFDCF4B
:1005000081B1089583B984E886BF06B607FEFDCFA2
:1005100081B1089584EC86BF06B607FEFDCF83B196
:10052000089580E00E941B0160939E0070939F00DD
:100530008093A0009093A1008FE39CE90197F1F7CD
:1005400000C0000081E00E941B016093A200709334
:10055000A3008093A4009093A50008958F929F928A
:10056000AF92BF92CF92DF92EF92FF926B017C012C
:1005700049015A0180919C0090919D00892B09F0BE
:100580007AC020E030E040EA51E4C701B6010E94A1
:10059000BA05882354F120E030E040EB51E4C70174
:1005A000B6010E940305181604F120E030E040E295
:1005B00052E4C501B4010E94BA058823B4F020E0DA
:1005C00030E040E752E4C501B4010E94030518166B
:1005D00064F082B38F7B82BB80916A0090916B0044
:1005E0009093A7008093A60041C020E030E040E84F
:1005F00051E4C701B6010E9403058823F4F020E00E
:1006000030E040EF51E4C501B4010E9403058823A6
:10061000A4F020E030E040ED51E4C701B6010E94B3
:10062000BA05181654F020E030E04CE852E4C50159
:10063000B4010E94BA05181674F480916600909176
:100640006700877F99279093A7008093A60082B3C5
:10065000806482BB0BC082B38F7B82BB80916800B9
:10066000909169009093A7008093A6008091A600C6
:100670009091A70078C020E030E040E252E4C7014A
:10068000B6010E94BA05882354F120E030E040E32F
:1006900052E4C701B6010E940305181604F120E0D8
:1006A00030E040E251E4C501B4010E94BA0588235C
:1006B000B4F020E030E040EF51E4C501B4010E9405
:1006C0000305181664F082B38F7B82BB80916A00A9
:1006D00090916B009093A7008093A60040C020E00B
:1006E00030E04CE052E4C701B6010E9403058823C4
:1006F000ECF020E030E0A901C501B4010E9403053F
:100700008823A4F020E030E044E452E4C701B601BD
:100710000E94BA05181654F020E030E040E252E49E
:10072000C501B4010E94BA05181674F480916600E0
:1007300090916700877F99279093A7008093A600E8
:1007400082B3806482BB0BC082B38F7B82BB8091FB
:100750006800909169009093A7008093A600809113
:10076000A6009091A700FF90EF90DF90CF90BF90F0
:10077000AF909F908F9008950E94A90180919C0056
:1007800090919D00892B29F485E790E00E9400025A
:1007900004C089E790E00E94000264E080E00E94CB
:1007A000F6018DE790E00E9400026AE080E00E947E
:1007B000F6016091A2007091A3008091A400909135
:1007C000A50041E050E00E9426028FED0E94230226
:1007D00084E890E00E94000264E081E00E94F6015B
:1007E00086E890E00E9400026BE081E00E94F60142
:1007F00060919E0070919F008091A0009091A10057
:1008000041E050E00E94260285E20E9423022FEF81
:1008100083EC99E0215080409040E1F700C0000057
:1008200008952CC00E9491020E94A90164E080E01A
:100830000E94F6018EE890E00E94000264E081E0F0
:100840000E94F60186E990E00E94000220919E003D
:1008500030919F004091A0005091A1006091A200B2
:100860007091A3008091A4009091A5000E94AE0217
:100870008E7F9927682F81E20E94EF0480B38770F2
:1008800089F2089580E20E94DD0480936C008091DB
:100890006C008D3F09F453C08E3F29F18B3F09F066
:1008A0005CC056C00E94910220919E0030919F0032
:1008B0004091A0005091A1006091A2007091A3000E
:1008C0008091A4009091A5000E94AE028E7F99278E
:1008D000682F81E20E94EF040E94BC0380E20E9424
:1008E000DD0480936C0080916C008D3FD9F60895F3
:1008F0000E94910220919E0030919F004091A000A3
:100900005091A1006091A2007091A3008091A40079
:100910009091A5000E94AE028D779927682F81E201
:100920000E94EF0481E090E090939D0080939C00F2
:100930000E94BC0380E20E94DD0480936C008091E1
:100940006C008E3FA9F610929D0010929C000895B5
:1009500060E081E20E94EF0408950E9491022091DC
:100960009E0030919F004091A0005091A1006091A5
:10097000A2007091A3008091A4009091A5000E9414
:10098000AE028E7F9927682F81E20E94EF040E94B9
:10099000BC03089582B3876082BB81B3876081BB4B
:1009A00081B3806481BB82B38F7B82BB0E94CE0007
:1009B0000E9411040E944204FBCFCF93C82F0E94D3
:1009C00069020E946D0261E08C2F0E9477020E94F2
:1009D0008A02C82F0E9474028C2FCF910895CF9362
:1009E000DF93D82FC62F0E9469020E946D0260E03B
:1009F0008D2F0E9477028C2F0E9482020E94740227
:100A0000DF91CF9108950E94450508F481E0089593
:100A1000E89409C097FB3EF4909580957095619598
:100A20007F4F8F4F9F4F9923A9F0F92F96E9BB274E
:100A30009395F695879577956795B795F111F8CFCA
:100A4000FAF4BB0F11F460FF1BC06F5F7F4F8F4F35
:100A50009F4F16C0882311F096E911C0772321F02B
:100A60009EE8872F762F05C0662371F096E8862FC3
:100A700070E060E02AF09A95660F771F881FDAF71A
:100A8000880F9695879597F90895990F0008550F47
:100A9000AA0BE0E8FEEF16161706E807F907C0F004
:100AA00012161306E407F50798F0621B730B840B0C
:100AB000950B39F40A2661F0232B242B252B21F4E6
:100AC00008950A2609F4A140A6958FEF811D811D86
:100AD000089597F99F6780E870E060E008959FEFC0
:100AE00080EC089500240A941616170618060906C5
:100AF000089500240A941216130614060506089594
:100B0000092E0394000C11F4882352F0BB0F40F41B
:100B1000BF2B11F460FF04C06F5F7F4F8F4F9F4F5B
:100B2000089557FD9058440F551F59F05F3F71F0DD
:100B30004795880F97FB991F61F09F3F79F0879544
:100B40000895121613061406551FF2CF4695F1DFCD
:100B500008C0161617061806991FF1CF869571055D
:100B6000610508940895E894BB2766277727CB0191
:100B700097F908950E94450508F48FEF08950E94A3
:100B8000D2050C9480050E94720538F00E94790508
:100B900020F0952311F00C9469050C946F05112435
:100BA0000C94B4050E94910570F3959FC1F3950FC5
:100BB00050E0551F629FF001729FBB27F00DB11DE1
:100BC000639FAA27F00DB11DAA1F649F6627B00D71
:100BD000A11D661F829F2227B00DA11D621F739F5A
:100BE000B00DA11D621F839FA00D611D221F749F68
:100BF0003327A00D611D231F849F600D211D822FAF
:100C0000762F6A2F11249F5750409AF0F1F08823D5
:100C10004AF0EE0FFF1FBB1F661F771F881F915002
:100C20005040A9F79E3F510580F00C9469050C9443
:100C3000B4055F3FE4F3983ED4F3869577956795C6
:100C4000B795F795E7959F5FC1F7FE2B880F911D2C
:100C50009695879597F90895EE0FFF1F0590F491EB
:100C6000E02D0994EF920F931F93CF93DF93E80148
:100C700047FD02C034E001C034E1042E000C550BE6
:100C800057FF03C0519541955109E32E022F242FA0
:100C9000AE010E948409CE01DF91CF911F910F9187
:100CA000EF9008950F931F93CF93DF9382309105B8
:100CB00010F482E090E0E091AA00F091AB0020E017
:100CC00030E0A0E0B0E0309719F14081518102811D
:100CD000138148175907C8F08417950769F41097CE
:100CE00031F012960C93129713961C9327C0009321
:100CF000AA001093AB0022C02115310519F042174C
:100D0000530718F49A01BD01EF01DF01F801DBCFB1
:100D100021153105F9F0281B390B2430310580F4F9
:100D20008A819B816115710521F0FB019383828388
:100D300004C09093AB008093AA00FE01329644C099
:100D4000FE01E20FF31F8193919322503109398301
:100D500028833AC02091A8003091A900232B41F4A8
:100D600020916200309163003093A9002093A80085
:100D700020916000309161002115310541F42DB7BB
:100D80003EB74091640050916500241B350BE09103
:100D9000A800F091A900E217F307A0F42E1B3F0B67
:100DA0002817390778F0AC014E5F5F4F24173507DD
:100DB00048F04E0F5F1F5093A9004093A800819305
:100DC000919302C0E0E0F0E0CF01DF91CF911F915D
:100DD0000F910895CF93DF93009709F481C0FC0130
:100DE000329713821282A091AA00B091AB001097A3
:100DF00081F420813181820F931F2091A8003091CE
:100E0000A9002817390751F5F093A900E093A8002D
:100E100067C0ED0120E030E0CE17DF0740F44A81E3
:100E20005B819E0141155105F1F0EA01F5CFD383B5
:100E3000C28340815181840F951FC817D90759F487
:100E400088819981840F951F0296918380838A817E
:100E50009B81938382832115310529F4F093AB00A4
:100E6000E093AA003DC0E901FB83EA8349915991CF
:100E7000C40FD51FEC17FD0761F480819181840FA9
:100E8000951F0296E90199838883828193819B83D0
:100E90008A83E0E0F0E012968D919C911397009781
:100EA00019F0FD01DC01F7CF8D919C9111979D0107
:100EB0002E5F3F4F820F931F2091A8003091A90011
:100EC0002817390769F4309729F41092AB00109273
:100ED000AA0002C013821282B093A900A093A800B6
:100EE000DF91CF910895AEE0B0E0E9E7F7E00C9430
:100EF000740C0D891E898F89988D26E02C831A83A6
:100F0000098397FF02C080E090E801979E838D835C
:100F1000AE01455E5F4F698D7A8DCE0101960E94CC
:100F2000A3074D815E8157FD0AC02F813885421786
:100F300053070CF49A01F801E20FF31F10822E966A
:100F4000E4E00C94900CABE0B0E0E9EAF7E00C943C
:100F5000660C6C017B018A01FC0117821682838179
:100F600081FFCCC1CE0101963C01F6019381F701CE
:100F700093FD859193FF81917F01882309F4BAC184
:100F8000853239F493FD859193FF81917F018532FC
:100F900029F4B60190E00E94CC0BE7CF912C212CD4
:100FA000312CFFE1F315D8F08B3279F038F4803230
:100FB00079F08332A1F4232D20611DC08D3261F0C0
:100FC000803369F4232D216016C0832D8260382E72
:100FD000E32DE4603E2E2AC0F32DF8601DC037FCDF
:100FE0002DC020ED280F2A3040F08E32B9F436FCA7
:100FF00081C1232D2064322E19C036FE06C08AE03E
:10100000989E200D1124922E11C0EAE02E9E200DF4
:101010001124222EF32DF0623F2E08C08C3621F4CD
:10102000832D8068382E02C0883641F4F70193FD85
:10103000859193FF81917F018111B3CF982F9F7D7F
:101040009554933028F40C5F1F4F9FE399830DC094
:10105000833631F0833771F0833509F059C021C0F0
:10106000F801808189830E5F1F4F88248394912C1F
:10107000530113C02801F2E04F0E511CF801A0806B
:10108000B18036FE03C0692D70E002C06FEF7FEFC4
:10109000C5010E94C10B4C018201F32DFF773F2E49
:1010A00016C0280122E0420E511CF801A080B18038
:1010B00036FE03C0692D70E002C06FEF7FEFC501FF
:1010C0000E94B60B4C01F32DF0683F2E820133FCD9
:1010D0001BC0822D90E088169906B0F4B60180E21C
:1010E00090E00E94CC0B2A94F4CFF50137FC859157
:1010F00037FE81915F01B60190E00E94CC0B211078
:101100002A9421E0821A91088114910471F7E8C0B1
:10111000843611F0893641F5F80137FE07C0608149
:101120007181828193810C5F1F4F08C06081718142
:10113000072E000C880B990B0E5F1F4FF32DFF76C7
:101140003F2E97FF09C090958095709561957F4FD0
:101150008F4F9F4FF0683F2E2AE030E0A3010E949E
:10116000080C882E861845C0853731F4232D2F7E34
:10117000B22E2AE030E025C0932D997FB92E8F360C
:10118000C1F018F4883579F0B5C0803719F0883788
:1011900021F0B0C0E92FE061BE2EB4FE0DC0FB2DE2
:1011A000F460BF2E09C034FE0AC0292F2660B22E7B
:1011B00006C028E030E005C020E130E002C020E1B8
:1011C00032E0F801B7FE07C06081718182819381AE
:1011D0000C5F1F4F06C06081718180E090E00E5F60
:1011E0001F4FA3010E94080C882E8618FB2DFF7745
:1011F0003F2E36FE0DC0232D2E7FA22E891458F4CB
:1012000034FE0BC032FC09C0832D8E7EA82E05C093
:10121000B82CA32C03C0B82C01C0B92CA4FE0FC05D
:10122000FE01E80DF11D8081803321F49A2D997E15
:10123000A92E09C0A2FE06C0B394B39404C08A2D9F
:10124000867809F0B394A3FC11C0A0FE06C0B214C6
:1012500088F4280C922C9B180EC0B21460F4B601CE
:1012600080E290E00E94CC0BB394F7CFB21418F454
:101270002B1802C0982C212CA4FE10C0B60180E3CC
:1012800090E00E94CC0BA2FE17C0A1FC03C088E72F
:1012900090E002C088E590E0B6010CC08A2D867807
:1012A00059F0A1FE02C08BE201C080E2A7FC8DE2F2
:1012B000B60190E00E94CC0B891438F4B60180E3AB
:1012C00090E00E94CC0B9A94F7CF8A94F301E80D3A
:1012D000F11D8081B60190E00E94CC0B8110F5CF0A
:1012E000222009F442CEB60180E290E00E94CC0BAD
:1012F0002A94F6CFF6018681978102C08FEF9FEF87
:101300002B96E2E10C94820CA9E0B0E0EAE8F9E067
:101310000C946C0C6A01122FB02E2BE3201720F0D6
:10132000FF24F394F00E02C02CE3F22E0F2D27E0E1
:10133000AE014F5F5F4F0E94DE0ABC014981842FDE
:101340008970813031F0E1FC06C0E0FE06C090E219
:1013500005C09DE203C09BE201C090E05E2D50718C
:1013600043FF3CC0911102C083E001C084E08117BB
:1013700018F4212F281B01C020E051110BC0F601E9
:10138000822F30E2882319F031938150FBCFC20EB7
:10139000D11C20E0992329F0D6019C93F6013196C7
:1013A0006F01C6010396E2FE0AC03EE4D6013C93FB
:1013B00041E411964C93119712963C9306C03EE679
:1013C000F601308341E641833283FC01322F40E253
:1013D000332309F442C041933150FACF42FF44C055
:1013E000911102C083E001C084E0811718F4212F1D
:1013F000281B01C020E051110BC0F601822F30E202
:10140000882319F031938150FBCFC20ED11C20E00C
:10141000992329F0D6019C93F60131966F01C601FC
:101420000396E2FE0BC039E4D6013C933EE41196EC
:101430003C93119736E412963C9307C039E6F601C7
:1014400030833EE6318336E63283FC01322F40E2C0
:10145000332319F041933150FBCFFC01E20FF11D12
:1014600010828EEF9FEFA6C021E030E0911102C004
:1014700020E030E0161617061CF4FB01319602C07E
:10148000E1E0F0E02E0F3F1FBB2021F0EB2DF0E05C
:10149000319602C0E0E0F0E02E0F3F1FE12FF0E0B8
:1014A0002E173F071CF4121B212F01C020E08E2DA8
:1014B000887159F4F601822F30E2882319F03193B4
:1014C0008150FBCFC20ED11C20E0992329F0D60118
:1014D0009C93F60131966F0151110BC0F601822FDA
:1014E00090E3882319F091938150FBCFC20ED11C59
:1014F00020E00F2D060F9A81342F307144FF03C076
:10150000913309F40150101624F4093018F008E062
:1015100001C001E0AB0177FF02C040E050E0FB01F9
:10152000E41BF50BA1E0B0E0AC0FBD1FEA0FFB1F01
:101530008EE2A82E4B01801A91080B2D10E0119518
:10154000019511094F3FBFEF5B0721F4D601AC9223
:1015500011966D01641775072CF08416950614F426
:10156000818101C080E3415051093196D601119625
:101570007D014017510724F0D6018C936701E2CF1B
:101580006417750739F4963320F4953319F4311143
:1015900001C081E3F6018083F701822F90E2882366
:1015A00019F091938150FBCFF701E20FF11D1082EA
:1015B00080E090E02996ECE00C94880C283008F04C
:1015C00027E03327DA01990F311D87FD91600096DE
:1015D0006105710539F432602E5F3D9330E32A9541
:1015E000E1F708959F3F30F080387105610509F0FB
:1015F0003C5F3C5F3D93913008F08068911DDF9324
:10160000CF931F930F93FF92EF92192F987F969588
:10161000E92F96959695E90FFF27E254FF4F9927FA
:101620003327EE24FF24A701E701059008940794CF
:1016300028F4360FE71EF81E491F511D660F771F4D
:10164000881F991F0694A1F70590079428F4E70EC8
:10165000F81E491F561FC11D770F881F991F661F4F
:101660000694A1F70590079428F4F80E491F561F19
:10167000C71FD11D880F991F661F771F0694A1F7FA
:101680000590079420F4490F561FC71FD81F990FC4
:10169000661F771F881F0694A9F78491109517700D
:1016A00041F0D695C79557954795F794E7941A95C5
:1016B000C1F7E4E6F0E068941590159135916591D5
:1016C000959105907FE27395E118F10A430B560B53
:1016D000C90BD009C0F7E10CF11E431F561FC91FEB
:1016E000D01D7EF4703311F48A95E6CFE894015052
:1016F00030F0080F0AF40027021708F4202F239572
:10170000022F7A3328F079E37D932A95E9F710C008
:101710007D932A9589F60694979567953795179541
:101720001794E118F10A430B560BC90BD00998F036
:1017300023957E9173957A3308F070E37C932013A0
:10174000B8F77E9170617D9330F0839571E37D935E
:1017500070E32A95E1F71124EF90FF900F911F910C
:10176000CF91DF91992787FD90950895FC01059011
:10177000615070400110D8F7809590958E0F9F1F93
:101780000895FC016150704001900110D8F78095D8
:1017900090958E0F9F1F08950F931F93CF93DF9304
:1017A000FB01238121FD03C08FEF9FEF2CC022FF9F
:1017B00016C046815781248135814217530744F46E
:1017C000A081B1819D012F5F3F4F318320838C9396
:1017D000268137812F5F3F4F3783268314C08B01CB
:1017E000EC01FB010084F185E02D0995892BE1F6E0
:1017F000D80116968D919C911797019617969C93F8
:101800008E931697CE01DF91CF911F910F9108957E
:10181000FA01AA27283051F1203181F1E8946F9321
:101820006E7F6E5F7F4F8F4F9F4FAF4FB1E03ED0C7
:10183000B4E03CD0670F781F891F9A1FA11D680F65
:10184000791F8A1F911DA11D6A0F711D811D911D98
:10185000A11D20D009F468943F912AE0269F11240D
:101860003019305D3193DEF6CF010895462F477071
:10187000405D4193B3E00FD0C9F7F6CF462F4F70CC
:10188000405D4A3318F0495D31FD4052419302D02A
:10189000A9F7EACFB4E0A6959795879577956795D0
:1018A000BA95C9F700976105710508959B01AC01D0
:1018B0000A2E06945795479537952795BA95C9F7F7
:1018C000620F731F841F951FA01D08952F923F92D2
:1018D0004F925F926F927F928F929F92AF92BF9240
:1018E000CF92DF92EF92FF920F931F93CF93DF93EC
:1018F000CDB7DEB7CA1BDB0B0FB6F894DEBF0FBE49
:10190000CDBF09942A88398848885F846E847D8495
:101910008C849B84AA84B984C884DF80EE80FD8097
:101920000C811B81AA81B981CE0FD11D0FB6F8940D
:0E193000DEBF0FBECDBFED010895F894FFCFCE
:10193E000000AC002000DF00BF007F00FF25640028
:10194E0025660000404D3A31004D3A320020546574
:10195E006D703A0043002048756D69643A0041632A
:0C196E006874756E6700416C61726D005A
:00000001FF
